:020000040000FA
:1000000060060020430300004B0300004D03000086
:100010004F030000510300005303000000000000E4
:100020000000000000000000000000005503000078
:100030005703000000000000590300005B030000AC
:100040005D0300005F030000610300006303000024
:100050006503000067030000690300006B030000F4
:100060006D0300006F0300007103000073030000C4
:100070007503000077030000790300007B03000094
:100080007D0300007F030000810300008303000064
:1000900085030000E70A0000890300008B030000CD
:1000A0008D0300008F030000910300009303000004
:1000B0009503000097030000F90600009B03000071
:1000C0009D0300009F030000A1030000A3030000A4
:1000D000A5030000A7030000A9030000AB03000074
:1000E000AD030000AF03000000000000B1030000FA
:1000F000B3030000B5030000B7030000B90300001C
:10010000BB030000BD030000BF030000C1030000EB
:100110000000000000000000C3030000C503000051
:10012000C7030000C9030000CB030000CD0300009B
:10013000CF030000D1030000D3030000D50300006B
:1001400000000000000000000000000000000000AF
:10015000D7030000D9030000DB030000DD0300002B
:10016000000000000000000000000000000000008F
:10017000000000000000000000000000000000007F
:10018000000000000000000000000000000000006F
:10019000000000000000000000000000000000005F
:1001A000000000000000000000000000000000004F
:1001B000DF030000E1030000E3030000E5030000AB
:1001C000E7030000E9030000EB030000ED0300007B
:1001D000EF030000F1030000F3030000F50300004B
:1001E000F7030000F9030000FB030000000000001B
:1001F00000000000FD030000FF03000001040000F8
:1002000003040000050400000000000000000000DE
:1002100007040000090400000B0400000D040000A6
:100220000F04000011040000130400001504000076
:1002300017040000190400001B0400001D04000046
:100240001F04000021040000230400002504000016
:1002500027040000290400002B0400002D040000E6
:100260002F040000310400003304000000F002F805
:1002700000F04CF80AA090E8000C82448344AAF1F4
:100280000107DA4501D100F041F8AFF2090EBAE8F2
:100290000F0013F0010F18BFFB1A43F001031847BA
:1002A0002827000048270000103A24BF78C878C1EA
:1002B000FAD8520724BF30C830C144BF04680C606C
:1002C000704700000023002400250026103A28BFB4
:1002D00078C1FBD8520728BF30C148BF0B607047B8
:1002E000662902F02483672902F0218300207047E9
:1002F0001FB502F012FB01F0CFFA0400002000212C
:1003000002F010F8E0601FBD10B510BD01F0C4FB95
:100310001146FFF7EDFF00F0F1FB01F0E2FB03B443
:10032000FFF7F2FF03BC01F023FC000072B6704738
:1003300062B670474FF0E00080F31188704730BF1D
:1003400070473F4880473F480047FEE7FEE7FEE72B
:10035000FEE7FEE7FEE7FEE7FEE7FEE7FEE7FEE775
:10036000FEE7FEE7FEE7FEE7FEE7FEE7FEE7FEE765
:10037000FEE7FEE7FEE7FEE7FEE7FEE7FEE7FEE755
:10038000FEE7FEE7FEE7FEE7FEE7FEE7FEE7FEE745
:10039000FEE7FEE7FEE7FEE7FEE7FEE7FEE7FEE735
:1003A000FEE7FEE7FEE7FEE7FEE7FEE7FEE7FEE725
:1003B000FEE7FEE7FEE7FEE7FEE7FEE7FEE7FEE715
:1003C000FEE7FEE7FEE7FEE7FEE7FEE7FEE7FEE705
:1003D000FEE7FEE7FEE7FEE7FEE7FEE7FEE7FEE7F5
:1003E000FEE7FEE7FEE7FEE7FEE7FEE7FEE7FEE7E5
:1003F000FEE7FEE7FEE7FEE7FEE7FEE7FEE7FEE7D5
:10040000FEE7FEE7FEE7FEE7FEE7FEE7FEE7FEE7C4
:10041000FEE7FEE7FEE7FEE7FEE7FEE7FEE7FEE7B4
:10042000FEE7FEE7FEE7FEE7FEE7FEE7FEE7FEE7A4
:10043000FEE7FEE704480549034A054B7047000004
:10044000550400006D0200006004002060060020DA
:1004500060040020FD48006840F47000FB4908601B
:10046000704708B5FA48006840F00100F849086094
:10047000084600680090F6481030006840F001001F
:10048000F34910310860084600680090F1480068A0
:1004900040F00300EF490860EE48FC38006840F087
:1004A0000300EC49FC390860EA481030006840F06D
:1004B0001100E84910310860E748006B20F00100A6
:1004C000E54908630020E5490860E348006B20F037
:1004D0002000E1490863082048622C208862084611
:1004E000C06A20F00200C8620846C06A20F0080016
:1004F000C8620846C06A40F01000C8620846C06A78
:1005000040F06000C8620846006B40F201310843C9
:10051000D149086308BD08B5CD48006840F008001F
:10052000CB490860084600680090C9481030006850
:1005300040F00400C6491031086008460068009089
:10054000C748C8490860081D006840F08000091DC0
:100550000860C448001F006840F0C000C149091F7E
:100560000860C148006840F0C000BF490860BD484D
:100570000C30006840F08850BA490C310860BB4824
:10058000006B20F00100B94908630020B8490860F9
:10059000B648006B20F02000B44908630820486288
:1005A0002C2088620846C06A20F00200C862084613
:1005B000C06A20F00800C8620846C06A40F0100017
:1005C000C8620846C06A40F06000C8620846006B16
:1005D00040F201310843A549086308BD08B59C48AD
:1005E000006840F020009A490860084600680090C2
:1005F000A048006840F016009E4908609D48FC38FD
:10060000006820F016009B49FC3908609A48006891
:1006100040F00600984908600846006820F0100085
:10062000086094480C38006840F0100091490C397B
:100630000860FFF77BFE9148006840F080404FF073
:10064000E021C1F800018E48006820F47F0040F4EA
:1006500020008B4908608B4800684FF000008949F2
:1006600008608948006820F010008749086001F19F
:100670000400006820F0100001F10401086001F19D
:100680000400006820F0100001F1040108607F48B8
:10069000006840F010007D4908607A48006840F02A
:1006A000100078490860FFF745FEFFF741FE7848E3
:1006B000D0F8FC0340F004007549C1F8FC0308467B
:1006C000D0F8FC0320F01000724908604FF00000E1
:1006D0007149086004E070480068401C6E49086079
:1006E0006D4800686428F6D36A48006840F010003E
:1006F0006749C1F8FC0308BD6648006820F0100097
:100700006349C1F8FC034FF000006349086004E04E
:1007100061480068401C604908605F4800685F49A4
:100720008842F5D35B48006840F010005849C1F892
:10073000FC035648006840F01000544908607047B8
:1007400008B54348006840F0020041490860084687
:10075000006800903E481830006840F001003C49B5
:10076000183108600846006800904D48006840F065
:100770000C004B4908604A48FC38006840F00C0007
:100780004749FC39086046481030006840F44C5036
:1007900043491031086042481038006840F00800B2
:1007A0003F491039086010203E4908620720C860A0
:1007B00008BD00BF3B48406810F0010FFAD139482E
:1007C000006840F0D000374908600846006840F0F3
:1007D0000100086070470146002000BF314A52689E
:1007E00012F0010FFAD1D0222E4B1A601A469160F6
:1007F00007225A6000BF2B4A526812F0010FFAD14B
:10080000D122284B1A600B225A6000BF254A526839
:1008100012F0030FFAD10DE0224A9268224B1A54CB
:100820000922204B5A6000BF1E4A526812F0010F85
:10083000FAD1401C0E28EFDB05221A4B5A6000BF8C
:10084000184A526812F0010FFAD1704788ED00E0A3
:1008500008E60F401C45004000C00040C8CF0040E3
:100860004B434F4C207500402074004000E0004096
:10087000C8EF00401C5502400054024000E100E077
:1008800004E400E010540240045402401C540240AE
:1008900000500240FC530240000000208096980067
:1008A0001C55004000000240F003002000BFFE4A3B
:1008B000526812F0010FFAD1D022FB4B1A601A468F
:1008C00090600B225A6000BFF74A526812F0010F85
:1008D000FAD1F54A91600922F34B5A6000BFF24AFF
:1008E000526812F0010FFAD10522EF4B5A6000BF97
:1008F000ED4A526812F0010FFAD1704700BFEB4881
:10090000806910F0100FFAD1E8480068C0B2704753
:1009100000BFE649896911F0200FFAD1E349086068
:10092000704700BFE248806910F0100FFAD1E0482C
:100930000068C0B2704700BFDD49896911F0200F1F
:10094000FAD1DB490860704700B5024603E0107831
:10095000FFF7DEFF521C10780028F8D100BD00B56B
:10096000024613465320FFF7D3FF6520FFF7D0FF61
:100970006E20FFF7CDFF6420FFF7CAFF3A20FFF794
:10098000C7FF2020FFF7C4FF03E01078FFF7C0FF88
:10099000521C10780028F8D10D20FFF7B9FF0A206B
:1009A000FFF7B6FF03E01878FFF7C5FF5B1C187868
:1009B0000028F8D10D20FFF7BEFF0A20FFF7BBFF8C
:1009C00000BD00B5002204E0BA49885CFFF7A0FF33
:1009D000521CB94800688242F6D30020B64908602C
:1009E0000D20FFF795FF0A20FFF792FF00BD10B51D
:1009F00003461C4614E0FFF794FFAE49AE4A126866
:100A000088540846AC490968405C2178884201D185
:100A1000641C00E01C46A8480068401CA649086009
:100A200020780028E7D1FFF7CCFF10BD70B5044651
:100A3000A248006840F00200A0490860A048C068D1
:100A400020F001009E49C860084600680860022046
:100A500048600846846200208863FFF767FC152021
:100A60000221002807DA4A07150E964A00F00F0304
:100A70001B1FD55403E04A07130E934A135400BFBB
:100A800015200121814042094FF0E02303EB82024F
:100A9000C2F8001100BF8A48406A40F0010088494E
:100AA00048620846806940F0010088610846C068D5
:100AB00040F00100C860FFF73BFC70BD7F48001D9F
:100AC000006840F020007D49091D08607F480068EB
:100AD00040F002007D4908607D48006840F0020057
:100AE0007B490860704701207549486270470021C2
:100AF00000BF00E0491C8142FCD370472DED0A8BFA
:100B00008EB0FFF7AEFCFFF706FDFFF767FDFFF7BE
:100B100017FE00216B20FFF7C9FE10211C20FFF7F4
:100B2000C5FE08211B20FFF7C1FE6AA0FFF717FFD3
:100B30006AA0FFF75CFF6BA0FFF711FF6CA0FFF747
:100B400056FF6CA0FFF70BFF69A0FFF750FF73A0E3
:100B5000FFF705FF66A0FFF74AFF73A0FFF7FFFE50
:100B600063A0FFF744FF73A0FFF7F9FE60A0FFF753
:100B70003EFF7548006840F002007449C1F8FC036C
:100B80007348FFF753FF00BF4D48C06910F0010FD5
:100B9000FAD04B48C06820F001004949C8606A4853
:100BA000006820F002006949C1F8FC0369A0FFF762
:100BB000D6FE4FA0FFF71BFFDFE36A48FFF797FF62
:100BC0003B20FFF708FE68494978674A127841EAF6
:100BD000022108B201F052FD41EC100BB0EE40BA18
:100BE000F0EE60BA9FED610B53EC102B51EC1B0B38
:100BF00001F0ECFB41EC180B5B49C9785A4A92783A
:100C000041EA022108B201F039FD41EC100BB0EECF
:100C100040BAF0EE60BA9FED550B53EC102B51EC3F
:100C20001B0B01F0D3FB41EC190B4F4949794E4A9C
:100C3000127941EA022108B201F020FD41EC100BCB
:100C4000B0EE40BAF0EE60BA9FED480B53EC102BBB
:100C500051EC1B0B01F0BAFB41EC1A0B4249497AEB
:100C6000414A127A41EA022108B201F007FD41EC43
:100C7000100BB0EE40CAF0EE60CA9FED3E0B53EC95
:100C8000102B51EC1C0B01F0A1FB41EC100BB0EE52
:100C900040BAF0EE60BA51EC1B0B01F059FB05466F
:100CA0003149C97A304A69E00000024000C0004082
:100CB00000E00040080000200000002004E60F4093
:100CC0000010034018ED00E000E400E01C55024075
:100CD0000054024041542B52535400007265616429
:100CE0007900000041542B43574D4F44453D33009C
:100CF0004F4B000041542B43575341503D22455325
:100D0000505F313244394632222C2231323334356D
:100D1000363738222C312C330000000041542B434D
:100D2000494653520000000041542B4349504D5551
:100D3000583D310041542B4349505345525645527A
:100D40003D312C3830000000FC530240005002407E
:100D500000B4C40441542B43495053544154555397
:100D600000000000404B4C00F00300200000000099
:100D70000000B0400000000000605040927A41EA5C
:100D8000022108B201F07AFC41EC100BB0EE40CA2F
:100D9000F0EE60CA1FED090B53EC102B51EC1C0B4D
:100DA00001F014FB41EC100BB0EE40BAF0EE60BA6B
:100DB00051EC1B0B01F0CCFA0646F949497BF84A85
:100DC000127B41EA022108B201F058FC41EC100B01
:100DD000B0EE40CAF0EE60CA1FED1A0B53EC102BB8
:100DE00051EC1C0B01F0F2FA41EC100BB0EE40BAE2
:100DF000F0EE60BA51EC1B0B01F0AAFA0746E9A02D
:100E0000FFF7A2FD53EC182BE8A101A800F0CAFAE5
:100E100001A8FFF799FDE6A0FFF796FD53EC192B0B
:100E2000E2A101A800F0BEFA01A8FFF78DFDE2A043
:100E3000FFF78AFD53EC1A2BDCA101A800F0B2FAEF
:100E400001A8FFF781FDDEA0FFF77EFD284601F037
:100E5000F3FC41EC100BB0EE40BAF0EE60BA53EC8C
:100E60001B2BD9A101A800F09DFA01A8FFF76CFD8A
:100E7000D6A0FFF769FD304601F0DEFC41EC100B17
:100E8000B0EE40BAF0EE60BA53EC1B2BC7A101A83C
:100E900000F088FA01A8FFF757FDCEA0FFF754FD38
:100EA000384601F0C9FC41EC100BB0EE40BAF0EE50
:100EB00060BA53EC1B2BBDA101A800F073FA01A886
:100EC000FFF742FD0D20FFF723FD0A20FFF720FD6D
:100ED0009FEDC20B53EC102B51EC180B01F076FC7C
:100EE00002D84FF0010801E04FF000089FEDBD0B64
:100EF00053EC102B51EC180B01F0D8FB01D801205A
:100F000000E0002008EA00089FEDB40B53EC102B22
:100F100051EC190B01F05AFC01D8012000E000202F
:100F200008EA00089FEDAF0B53EC102B51EC190BA6
:100F300001F0BCFB01D8012000E0002008EA000815
:100F40009FEDAA0B53EC102B51EC1A0B01F03EFC59
:100F500001D8012000E0002008EA00089FEDA50B61
:100F600053EC102B51EC1A0B01F0A0FB01D801201F
:100F700000E0002018EA000F07D0A0A0FFF7EFFC68
:100F8000A0A4A2A0FFF7EBFCEFE19FEDA40B53ECB4
:100F9000102B51EC180B01F019FC02D84FF001088E
:100FA00001E04FF000089FED9F0B53EC102B51EC2C
:100FB000180B01F07BFB01D8012000E0002008EABB
:100FC00000089FED8A0B53EC102B51EC190B01F02C
:100FD000FDFB01D8012000E0002008EA00089FED99
:100FE000930B53EC102B51EC190B01F05FFB01D864
:100FF000012000E0002008EA00089FED780B53EC88
:10100000102B51EC1A0B01F0E1FB01D8012000E09C
:10101000002008EA00089FED730B53EC102B51ECF5
:101020001A0B01F043FB01D8012000E0002018EA70
:10103000000F07D07FA0FFF792FC80A481A0FFF7EC
:101040008EFC92E19FED830B53EC102B51EC180BAF
:1010500001F0BCFB02D84FF0010801E04FF000089E
:101060009FED6E0B53EC102B51EC180B01F01EFB97
:1010700001D8012000E0002008EA00089FED770B6E
:1010800053EC102B51EC190B01F0A0FB01D80120FF
:1010900000E0002008EA00089FED720B53EC102BD3
:1010A00051EC190B01F002FB01D8012000E00020F7
:1010B00008EA00089FED490B53EC102B51EC1A0B7A
:1010C00001F084FB01D8012000E0002008EA0008BC
:1010D0009FED440B53EC102B51EC1A0B01F0E6FA88
:1010E00001D8012000E0002018EA000F07D05FA01F
:1010F000FFF735FC5FA445A0FFF731FC35E19FED1C
:10110000570B53EC102B51EC180B01F05FFB02D87E
:101110004FF0010801E04FF000089FED400B53EC49
:10112000102B51EC180B01F0C1FA01D8012000E09E
:10113000002008EA00089FED510B53EC102B51ECF6
:10114000190B01F043FB01D8012000E0002008EA60
:1011500000089FED4C0B53EC102B51EC190B01F0D8
:10116000A5FA01D8012000E0002008EA00089FED60
:10117000470B53EC102B51EC1A0B01F027FB01D855
:10118000012000E0002008EA00089FED160B53EC58
:10119000102B51EC1A0B01F089FA7CD801207BE06E
:1011A000F00300202041783D20000000256700006A
:1011B0002041793D2000000020417A3D20000000C0
:1011C00020202047783D2000256600002047793DFB
:1011D0002000000020477A3D2000000000000000B1
:1011E0000000E0BF000000000000E03F0000000041
:1011F0000000F83F000000000000004073746F70B2
:101200000D0A000073746F700000000041542B43FE
:10121000495053454E443D302C340000000000003E
:1012200000000000000000000000F03F000000008F
:101230000000044072696768740D0A00726967688B
:101240007400000041542B43495053454E443D30F7
:101250002C350000000000000000F0BF000000007E
:10126000000004C0000000000000F8BF6C65667458
:101270000D0A00006C6566740000000033333333E0
:101280003333E3BF333333333333E33F666666666A
:101290006666E6BFFFE7002018EA000F08D037A017
:1012A000FFF75DFB37A4AFF26400FFF758FB5CE08B
:1012B0001FED260B53EC102B51EC180B01F086FAA6
:1012C00002D84FF0010801E04FF000081FED290B94
:1012D00053EC102B51EC180B01F0E8F901D8012068
:1012E00000E0002008EA00081FED1C0B53EC102B57
:1012F00051EC190B01F06AFA01D8012000E000203E
:1013000008EA00081FED210B53EC102B51EC190BD0
:1013100001F0CCF901D8012000E0002008EA000823
:101320001FED520B53EC102B51EC1A0B01F04EFA3F
:1013300001D8012000E0002008EA00089FED130B0F
:1013400053EC102B51EC1A0B01F0B0F901D801202D
:1013500000E0002018EA000F07D00EA0FFF7FFFA08
:101360000EA4AFF25810FFF7FAFA03E02078FFF767
:10137000E2FA641C20780028F8D11EE466726F6ED1
:10138000740D0A0066726F6E740000006666666611
:101390006666E63F6261636B0D0A00006261636B23
:1013A000000000000FB41CB5074B06AA7B44694639
:1013B0000090059800F057FA0020694600F066FAA0
:1013C0001CBC5DF814FB0000DD0400002DE9F041B9
:1013D0000E460446002020622046E168884730B36C
:1013E000252805D0D4E901219047206A401CF2E766
:1013F000E168204600278847050018D0A5F1410084
:10140000192802D820354FF4006732462946204675
:101410002760FEF765FF40B1012804D0F61D26F0D5
:1014200007060836D8E7361DD6E72846DAE7206AE9
:10143000BDE8F08170477047704770472DE9FF4F56
:101440000C461E464FF0FF378BB0D2E90001DDF8A5
:1014500060800A908A46C1F30A5505B93D460021CD
:1014600008464FF00000BAF1000F00F4400005DA22
:1014700000EB80004FF4400101EA50004FEA905920
:10148000B9F1010F00DDB9460A9850EA4A000ED0C2
:1014900044F61050A5F2FF3545432F14B8F1000F64
:1014A0001ED07542291E1EDDC9F100021CE0B8F1F4
:1014B000010F4FF0000001D0302103E0F24305E0BE
:1014C0002154401CB042FBDB304600220021215455
:1014D0000B99C1F80880C1E900200FB0BDE8F08F7A
:1014E000BD1B6D1CDEE74A4600DA694206A800F023
:1014F0005DFA06AB07CB03AB07C350460A9900F071
:101500003EFB8DE80700A0F500501F3800900398BF
:10151000002D09DD42F21F014A46084403A9039049
:10152000684600F09DFD08E0A0F500504A461F38CF
:1015300003A90390684600F0A7FD8DE807000004AA
:10154000000C03D04FF0FF30410800E01046B8F126
:10155000000F03D00022009215461FE0751E06D42E
:1015600000F09EF902F1300262556D1EF8D5B346C7
:101570000122084302D000227F1C04E0207830289A
:1015800001D100227F1E002A099787D01DE0112D6E
:1015900007DA00F085F9303262556D1C50EA01021D
:1015A000F5D108430FD10021681E05E0235C625C81
:1015B0006354491C2254401E8142F7DBAB46A81BF2
:1015C000401E099001E0009848B1002004F80B008B
:1015D0000B98099AC0F80880C0E9002B7DE7112616
:1015E0004FF000085AE72DE9F04F88460446D21D17
:1015F00022F0070191B0D1E90001CDE90A0100F024
:1016000079FE02460B98C00F01D02D2007E020681C
:10161000810701D52B2002E0202101EAC000032A26
:10162000099001D0072A05DB03464146204600F019
:101630007DF90FE12078800601D5E06900E0062001
:10164000B8F1650F814606D0B8F1660F18D0B8F131
:10165000670F72D132E00020B9F1110F009001DB69
:10166000112301E009F101030AAA01A90CA8FFF75F
:10167000E5FEDDE90C70002609F10105834648E02E
:1016800001204B4600904FF000470AAA01A90CA880
:10169000FFF7D4FEDDE90DB00C995D46002618B9C0
:1016A00009F1010001EB0005B9EB050003D4C0F11D
:1016B000FF3609F10105A5EB09002BE0B9F1010F97
:1016C00001DA4FF001090020B9F1110F00904846EE
:1016D00001DD112300E003460AAA01A90CA8FFF7C7
:1016E000ADFEDDE90C704D460026834620780007EC
:1016F0000AD4AB4500DA5D4601A8012D04DD41198D
:1017000011F8011C302907D04F4502DA17F1040FF8
:1017100004DA0120824610E06D1EEEE7002F02DCA5
:10172000ED1B3E4403E0781CA84200DD0546A7EB14
:10173000060000F1010A4FF000472078000703D4AB
:10174000AA4501DB4FF0FF3A0021B7F1004F0DF140
:1017500043088DF8431023D002202B23002F01DAF9
:101760007F422D234FF00A0C011EA0F1010000DC86
:101770004FB197FBFCF10CFB11720F4602F13002E6
:1017800008F8012DF0E7A8F1010003702188090590
:1017900001D5452100E06521A0F1010800F8011CF8
:1017A00009980FA9A1EB080707F1070700B101206D
:1017B00000EB050101EBEA70A1693844A1EB0000E0
:1017C000A0F10100A0612078C00602D42046AFF34A
:1017D0000080099830B1D4E901219047206A00F1D6
:1017E000010020622078C00620D52046AFF300809B
:1017F0001CE0002E04DBB34502DD01A8805D00E0A3
:101800003020D4E901219047206A761C401CBAF1AF
:10181000010A20620AD100F03FF8C0680168405C0C
:10182000D4E901219047206A401C2062281EA5F1BE
:101830000105DEDC07E0D4E9012118F8010B90472F
:10184000206A401C2062381EA7F10107F3DC204605
:10185000AFF30080022011B040E6000001694A1C8D
:1018600002610878704700B58FB0CDE901310021E1
:10187000059105497944CDE9031011466846FFF703
:10188000A5FD0FB000BD0000E5FFFFFF0A6802F8EC
:10189000010B0A60704700000048704720040020D8
:1018A00030B5B0F10A024FEA900E71F100034EEA32
:1018B000817EB0EB0E0061EB91014FEA101E4EEA03
:1018C000017E10EB0E0041EB11114FEA102E4EEA93
:1018D000016E10EB0E0041EB11214FEA104E4EEA63
:1018E000014E10EB0E0041EB1141401841F1000197
:1018F0004FEAD00040EA41704FEAD10110EB800579
:101900004FEA810444EA907444EB01046D1944EBFE
:101910000404521BA3414FF0000348BF0A3200D514
:1019200030BD401C41F1000130BD00002DE9F04107
:101930001F46044603260168072A01F4006004DB01
:1019400008B116A505E016A503E008B115A500E04D
:1019500015A521F010002060A069C01EA0610FB184
:10196000401EA0612046AFF300804FB1D4E90121B1
:1019700038469047206A401C2062C01C206206E066
:10198000206AFAE7D4E9012115F8010B9047761E89
:10199000F8D22046AFF30080BDE8F0814E414E0002
:1019A0006E616E00494E4600696E66002DE9F04793
:1019B000814616468AB035487844D0E900238068CD
:1019C0000092CDE90130314878440C38D0E9022347
:1019D000006903924FF03702CDE9043041F69B30A5
:1019E000014491FBF2F0A0F1800502FB10141B3CB6
:1019F00002D56442012000E00020DFF890A080467C
:101A00000027FA44AAF1C60A0DE0E00709D03246E1
:101A1000684607EB47010AEB810100F035FB8DE8D2
:101A2000070064107F1C002CEFD1184F7F44B43F97
:101A300017E0E80713D007EB04100DF1180A90E83F
:101A40000E00AAE80E00C068F04201D19819089073
:101A5000324606A903A800F017FB03AB07C36D10BD
:101A6000641C002DE5D132466946B8F1000F03A889
:101A700002D000F0F5FA01E000F006FBC9E9000130
:101A8000C9F808200AB0BDE8F0870000F40F000094
:101A900000487047000400207546FFF7F9FFAE4686
:101AA00005006946534620F00700854618B020B56A
:101AB000FEF7C0FCBDE820404FF000064FF00007E5
:101AC0004FF000084FF0000B21F00701AC46ACE8E6
:101AD000C009ACE8C009ACE8C009ACE8C0098D4653
:101AE00070470446AFF300802046FEF718FC000064
:101AF0004FF0013C50F8042B51F8043B9A4221D19D
:101B0000A2EB0C03934313EACC1317D150F8042B28
:101B100051F8043B9A4215D1A2EB0C03934313EA0C
:101B2000CC130BD150F8042B51F8043B9A4209D145
:101B3000A2EB0C03934313EACC13DBD04FF000006D
:101B4000704700BFD01A01BAB1FA81F101F0180153
:101B500022FA01F0CB40C1F12001DBB2C0B2C01AC1
:101B60002CFA01F3D11A914311EAC311E6D170475F
:101B700001491820ABBEFEE72600020070475FEA6D
:101B8000400C08BF91F0000F4FEA8C234FEAC122AE
:101B900043EA51514FEA1C5018BF00F5F0404FEA9C
:101BA000300018BF41F000415FEA6C5C00F0298012
:101BB000BCF1FF3F08BF40F080407047130C06BFE8
:101BC00012044FF0100C4FF0000C130E04BF120261
:101BD0000CF1080C130F04BF12010CF1040C930F4D
:101BE00004BF92000CF1020CD30F04BF52000CF1A1
:101BF000010C11464FF00002A0F11F00A0EB0C00F9
:101C0000704711F0004F08BF704731F000413FF4BA
:101C1000D5AF0B0C06BF09044FF0100C4FF0000CB1
:101C20000B0E04BF09020CF1080C0B0F04BF0901D5
:101C30000CF1040C8B0F04BF89000CF1020CCB0FCC
:101C400004BF49000CF1010CCCF12003A0EB0C0007
:101C500022FA03F302FA0CF241EA030100F1010057
:101C6000704720F07F4C80EA030023F07F47ACEB05
:101C7000070303F57C5300F0004003F1FF032DE957
:101C800080494FEA154B09B44FEA144325EA0B4E3D
:101C900024EA03480FF2042606EB132749083E788E
:101CA0005FEA320203FB0667C7F5000707FB06F68B
:101CB0004FEA54374FEAD64606F1020607FB066C98
:101CC000CCF1005C4FEA1C472CEA074C07FB06F4FA
:101CD0000CFB06F504EB15464FEA961634BF0020C0
:101CE0004FF000404FEAD13706FB07FC4FEA1C4C8F
:101CF0000CFB0BF7D21B03FB0CF761EB07010CFB92
:101D00000EF7B0EB074072EB17420CFB08F734BF3D
:101D1000A2EB0742B2EB074261EB17414FEA0C44DA
:101D20004FEA910706FB07FC4FEA1C4C0CFB0BF734
:101D3000B0EBC74072EB573203FB0CF734BFA2EB9A
:101D4000C742B2EBC74261EB57310CFB0EF7B0EB69
:101D5000C70072EB57720CFB08F734BFA2EBC70247
:101D6000B2EBC70261EB5771039F4FEA816141EA11
:101D7000921104EBCC044FEAD1374FEA826206FBA2
:101D800007FC42EA90124FEA80604FEA1C4C0CFBC1
:101D90000BF7D21B03FB0CF761EB07010CFB0EF7F3
:101DA000B0EB074072EB17420CFB08F734BFA2EB15
:101DB0000742B2EB074261EB17414FEA8C554FEAFD
:101DC000910704EB9C2406FB07FC4FEA1C4C0CFB20
:101DD0000BF7B0EBC74072EB573203FB0CF734BF85
:101DE000A2EBC742B2EBC74261EB57310CFB0EF7D7
:101DF000B0EBC70072EB57720CFB08F734BFA2EBD5
:101E0000C702B2EBC70261EB577115EB4C254FEAE5
:101E1000816141EA92114FEA82624FEAD13742EA88
:101E2000901206FB07FC44F100044FEA80604FEA81
:101E30001C4C0CFB0BF7D21B03FB0CF761EB0701EF
:101E40000CFB0EF7B0EB074072EB17420CFB08F7E8
:101E500034BFA2EB0742B2EB074261EB174115EB2F
:101E60001C154FEA813141EA92414FEA823242EA3F
:101E700090424FEA80304FEA0C7644F1000448EA81
:101E800003434EEA0B484FF0000EB2EB080C71EB27
:101E9000030724BF624639464EEB0E0E4FF0000B8F
:101EA0000018524149414BEB0B0BB2EB080C71EBA4
:101EB00003077BF1000B24BF624639464EEB0E0E42
:101EC0004FF0000B0018524149414BEB0B0BB2EBAA
:101ED000080C71EB03077BF1000B24BF6246394607
:101EE0004EEB0E0E51EA020718BF46F0010616EB44
:101EF0000E7655F1000254F1000103D5BDE88901C9
:101F0000BDE80088BDE88901BDE80048B619524126
:101F100041EB0101A3F10103704780807F7E7D7C4E
:101F20007B7A7978777676757473727171706F6E6B
:101F30006E6D6C6C6B6A6A69686867666665646416
:101F4000636362616160605F5F5E5E5D5D5C5C5BA0
:101F50005B5A5A595958585757565655555554540F
:101F6000535352525251515050504F4F4F4E4E4D6D
:101F70004D4D4C4C4C4B4B4B4A4A4A4949494848B9
:101F800048474747474646464545454444444443F9
:101F900043434342424242414141002B26D4770011
:101FA00021D01CB54FEA370703B44FF010004FF0B3
:101FB00010014FF000000FBCBDE810400BF1010B09
:101FC000BBF1010F08BF5FEA170722BF12F1010240
:101FD00011F101014FF0004143F1000300F0004016
:101FE00043EA00007047F9D35708DAE746EA0646A5
:101FF00013F1400F4FEA16461FDD13F1200FDFBF2C
:1020000016430A46002120335B42C8D0C3F12007A3
:1020100046EA064602FA07F74FEA164646EA070678
:10202000C3F1200722FA03F201FA07F721FA03F1BC
:102030004FF0000342EA0702B1E746EA020646EA29
:1020400006464FEA164646EA0106BCBF46EA064681
:10205000360C4FF000034FF000024FF000019EE7F6
:102060002DE9C048934630B491E8380007C831EAFA
:10207000400C48BF34EA430C03D5FFF7F2FDFFF7ED
:102080008CFFF0BCBDE800882DE9C048934630B411
:1020900091E8380007C810F0804F08BF13F0804F58
:1020A00003D100F005F8FFF778FFF0BCBDE8008829
:1020B00020F07F4780EA030023F07F4C07EB0C03FE
:1020C000A3F57C5300F00040A3F1FE0392F0000F53
:1020D00000F0B38095F0000F00F077802DE9014902
:1020E0004FEA11404FEA144621EA004800FB06FC83
:1020F00024EA064708FB06F607FB08F800FB07F78B
:1021000018EB06484CEB164C4FEA124B18EB0748FD
:102110004FEA15464CEB174022EA0B4E0BFB06FC30
:1021200025EA06470EFB06F607FB0EFE0BFB07F73C
:102130001EEB064E4CEB164C4FF000061EEB074E06
:102140004CEB174B18EB0B0840F1000018EB0E0B93
:1021500058EB000840F100008F1A4FF000013CBF1F
:10216000C943661B14BFB5EB040C00213CBFC94337
:10217000F61B4FEA17444EEA8E0E27EA04454FEA53
:102180001C4704FB07622CEA074C05FB07F70CFB16
:1021900005F604FB0CFC16EB074642EB174216EB68
:1021A0000C4642EB1C421BEB060658EB0202414177
:1021B00046EA9E0601D5BDE80189B619524141EBB8
:1021C0000101A3F10103BDE801894FEA14454FEA7B
:1021D000114724EA054621EA074C05FB07F406FBF4
:1021E00007F70CFB06F105FB0CFC11EB074144EB78
:1021F00017444FEA124711EB0C4144EB1C4422EA0E
:10220000074C05FB07F206FB07F70CFB06F605FB80
:102210000CFC16EB074642EB174216EB0C4642EB62
:102220001C456A1854F1000148BF7047B619524165
:1022300041EB0101A3F10103704795F0000F37D086
:102240004FEA11424FEA144721EA024624EA074CBA
:1022500002FB07F106FB07F70CFB06F402FB0CFC84
:1022600014EB074441EB17414FEA154714EB0C44BC
:1022700041EB1C4125EA074C02FB07F506FB07F77B
:102280000CFB06F602FB0CFC16EB074645EB17456C
:1022900016EB0C4645EB1C42121951F1000148BFE8
:1022A0007047B619524141EB0101A3F10103704798
:1022B0004FEA14454FEA114724EA054621EA074C44
:1022C00005FB07F106FB07F70CFB06F24FF00006D3
:1022D00005FB0CFC12EB074241EB174112EB0C42E1
:1022E00051EB1C4148BF7047921841EB0101A3F12B
:1022F0000103704703B401984100009850EAC120DF
:1023000018BF04204A0D18BF40F0010040F2FF72D0
:10231000B2EB515F08BF40F00200012808BF052062
:1023200002B0704710B500290AD00878002807D0FD
:1023300005487844FFF7DCFB002801D0002010BDE1
:102340000248784410BD0000B6060000AE0600004A
:1023500021F00042A2F16052B2F5801F01F000436B
:1023600028BFD2F17F6C0BD95FEA001C43EAC2029E
:1023700042EB507018BF704728BF20F00100704733
:10238000B2F5801FBCBF184670474FEA410C1CF5E0
:10239000001F02D2084600F0C5BA70B500F0C2F9BD
:1023A00000000089FFF7F6BF4FF00040A0F5800065
:1023B0007047491058BFC1F140415B1058BFC3F18D
:1023C00040438B42EFF30080704700002DE9C0418D
:1023D00030B4DFF8A0C23CEA111418BF3CEA131471
:1023E00000F0EC8081EA03051CEA111444EAD5747C
:1023F00018BF1CEA131500F0C780A4EB05044FF0CA
:10240000004545EAC12145EAC32341EA505143EA68
:10241000525304F17F74994204F500344FEAC0200E
:102420004FEAC22208BF904200F09C804FEA136539
:102430000FF24016765D4FEA134506FB05F7C7F12C
:10244000807706FB07F74FEAD737A7FB036876428A
:10245000C8F58038A7FB06CE38BFA8F1010807FBF6
:1024600008E64FF0000EA6FB028CE6FB03CEDCF183
:10247000000CCEF1004E38BFAEF1010EA6FB0C5899
:102480004FF000074FF00005E6FB0E87A1FB08C6E2
:10249000A0FB07CE16EB0E0645F10005E1FB076534
:1024A00015F1E04E7EBFA4F580345FEA46066D412B
:1024B00016F1800745F100054FEA17274FEA066637
:1024C00047EA0567A6F1DE46B6F1805F4FEA1525BB
:1024D0001FD9384624F0010C05EBC471BCF1FE6F26
:1024E00001EB0C1102D8F0BCBDE8008124425CBFB6
:1024F00001F5801E9EEAC47F02D4F0BCBDE80081D5
:10250000244238D4F0BCA1F1C041BDE8004100F044
:1025100057B94FEAD22242EA43524FEAD323A7FBEC
:1025200002864FEAD02040EA415007FB03661EEACC
:102530000E0F4FEAD12105FB026658BFA6EB0056ED
:10254000B6EB00564FEA520E4EEAC37E18EB0E0E63
:1025500056EB530EBDD518EB02085E417F1C55F1BA
:102560000005B6E74FF480154FF000074FF0000666
:102570004FF00008ADE7F0BC4FF0000001F1C041A2
:1025800001F00041BDE8008111EA0C1F0CEA1315AF
:1025900000D00CE013EA0C1F00F025804FF0000083
:1025A000F0BC81EA030101F00041BDE80081F0BC0C
:1025B000BDE8004181EA030100F002B9F0BCBDE8CA
:1025C000004170B500F0AEF8097EFC3E00F007B89F
:1025D00081EA03014FF0000001F00041704781EAF9
:1025E000030100F0EDB8F0BCBDE800414FF0000081
:1025F00021497047FFFDFBF9F7F5F4F2F0EEEDEB42
:10260000E9E8E6E4E3E1E0DEDDDBDAD8D7D5D4D3F0
:10261000D1D0CFCDCCCBCAC8C7C6C5C4C2C1C0BF3C
:10262000BEBDBCBBBAB9B8B7B6B5B4B3B2B1B0AF42
:10263000AEADACABAAA9A8A8A7A6A5A4A3A3A2A126
:10264000A09F9F9E9D9C9C9B9A99999897979695E1
:1026500095949393929191908F8F8E8E8D8C8C8B7D
:102660008B8A898988888787868585848483838205
:10267000828181800000FF070000F87F10F0004297
:1026800048BF4042B0FA80F310FA03F10AD0C3F118
:102690001D0303F580634FEA415002EB035202EB46
:1026A000D12170474FF000007047000051EA030C41
:1026B00017D41CF5801F58BFBCF5801F00F10680A1
:1026C000994218BF704708BF9042704707D711F56D
:1026D000801F58BF13F5801F19D499427047894253
:1026E00070471CF5801F08D5BCF5801FF7D58B42BD
:1026F00018BF704708BF824270474FF4001C1CEBA4
:10270000410F38BF1CEB430F01D28B42704770B5AD
:1027100000F008F8922449004FF000514FF0805328
:10272000FFF747BE0EF1020E2EF0030E5EF8046BAB
:10273000364205D4012A43EB030515F5001F12D8D4
:10274000012841EB010C1CF5001F0CD80ED14FEAFB
:10275000D17C15F5001F0CEB4C0C0CF1020C08BFE2
:102760004CEBD37C04E04FF0080C01E04FEAD37C43
:102770000CEB4C0526FA05F606F00706B6F1040C3C
:1027800006D20EEB860CBDE870404CF0010C6047A1
:10279000DFE80CF0090B02024FF000414FF000009F
:1027A000A1F5002170BD19461046012851EB010426
:1027B00018BFD4F5001484BF002001F0004170BDA3
:1027C0000808A0F500114FEA3101704753EA010CE7
:1027D00017D41CF5801F58BFBCF5801F00F1068080
:1027E0008B4218BF704708BF8242704707D713F566
:1027F000801F58BF11F5801F19D48B4270479B4230
:1028000070471CF5801F08D5BCF5801FF7D599428D
:1028100018BF704708BF904270474FF4001C1CEB74
:10282000430F38BF1CEB410F01D2994270470FB4E0
:102830000CBC03BCFFF76BBF43004FEAD30C4FEA5D
:102840003C0C43401FBF40070CF1605113F0FE4F9A
:1028500070471CF0006F03D100200CF0004170475E
:102860000CF0004343EA507010B540EACC0000F091
:102870000EF800BF000000924FEA0001FFF7A0BF72
:102880004FF000414FF00000A1F5002170470EF11C
:10289000020E2EF0030E5EF8044B244204D44FEADD
:1028A0004102B2F17F4F11D84FEA4003B3F17F4F9D
:1028B0000CD80ED14FEAD07CB2F17F4F0CEB4C0C10
:1028C0000CF1020C08BF4CEBD17C04E04FF0080C7B
:1028D00001E04FEAD17C0CEB4C0324FA03F404F042
:1028E0000704B4F1040C06D20EEB840CBDE81040D2
:1028F0004CF0010C6047DFE80CF0070802024FF0D3
:102900000040A0F5800010BD0846420018BFD2F17B
:10291000807288BF00F0004010BD4FF04070E1EEC3
:10292000100A7047FF2141EAD050C0057047FEF7FA
:102930005ABE000002400000000000A0000000009D
:1029400005400000000000C8000000000C4000002E
:102950000000409C00000000194000000020BCBEA8
:102960000000000034400000BFC91B8E00000004BE
:10297000B5400000504BCFD06607E2CF0100000009
:102980006C4100003E8251AADFEEA7340100000036
:10299000D9420000DCB5A0E23A301F97FFFFFFFFED
:1029A000B4450000FD25A0C8E9A3C14FFFFFFFFF0C
:1029B000FF3F00000000008000000000FF3F00001B
:1029C0000000008000000000042A00000000002039
:1029D00008000000A80200000C2A000008000020E7
:1029E00058060000C40200001C0000004300000064
:1029F000F8FFFFFF0C0000000E0000000F000000B9
:0C2A00002E00000000000000000000009C
:0400000500000343B1
:00000001FF
